{
  "contractName": "PriceOracleProxy",
  "abi": [
    {
      "inputs": [
        {
          "internalType": "address",
          "name": "_lpAddressesProviderAddress",
          "type": "address"
        },
        {
          "internalType": "address",
          "name": "_cTokensOracleAddress",
          "type": "address"
        }
      ],
      "payable": false,
      "stateMutability": "nonpayable",
      "type": "constructor"
    },
    {
      "constant": true,
      "inputs": [],
      "name": "aaveLPAddressesProviderAddress",
      "outputs": [
        {
          "internalType": "address",
          "name": "",
          "type": "address"
        }
      ],
      "payable": false,
      "stateMutability": "view",
      "type": "function"
    },
    {
      "constant": true,
      "inputs": [],
      "name": "cTokensOracleAddress",
      "outputs": [
        {
          "internalType": "address",
          "name": "",
          "type": "address"
        }
      ],
      "payable": false,
      "stateMutability": "view",
      "type": "function"
    },
    {
      "constant": true,
      "inputs": [
        {
          "internalType": "address",
          "name": "_asset",
          "type": "address"
        }
      ],
      "name": "getAssetPrice",
      "outputs": [
        {
          "internalType": "uint256",
          "name": "",
          "type": "uint256"
        }
      ],
      "payable": false,
      "stateMutability": "view",
      "type": "function"
    },
    {
      "constant": true,
      "inputs": [
        {
          "internalType": "address[]",
          "name": "_assets",
          "type": "address[]"
        }
      ],
      "name": "getAssetsPrices",
      "outputs": [
        {
          "internalType": "uint256[]",
          "name": "",
          "type": "uint256[]"
        }
      ],
      "payable": false,
      "stateMutability": "view",
      "type": "function"
    }
  ],
  "bytecode": "0x608060405234801561001057600080fd5b5060405161089d38038061089d8339818101604052604081101561003357600080fd5b810190808051906020019092919080519060200190929190505050816000806101000a81548173ffffffffffffffffffffffffffffffffffffffff021916908373ffffffffffffffffffffffffffffffffffffffff16021790555060008290508073ffffffffffffffffffffffffffffffffffffffff1663fca513a86040518163ffffffff1660e01b815260040160206040518083038186803b1580156100d957600080fd5b505afa1580156100ed573d6000803e3d6000fd5b505050506040513d602081101561010357600080fd5b8101908080519060200190929190505050600160006101000a81548173ffffffffffffffffffffffffffffffffffffffff021916908373ffffffffffffffffffffffffffffffffffffffff16021790555081600260006101000a81548173ffffffffffffffffffffffffffffffffffffffff021916908373ffffffffffffffffffffffffffffffffffffffff160217905550600260009054906101000a900473ffffffffffffffffffffffffffffffffffffffff16600360006101000a81548173ffffffffffffffffffffffffffffffffffffffff021916908373ffffffffffffffffffffffffffffffffffffffff1602179055505050506106938061020a6000396000f3fe608060405234801561001057600080fd5b506004361061004c5760003560e01c806338b6fcbf1461005157806371a4241d1461009b5780639d23d9f2146100e5578063b3596f07146101b3575b600080fd5b61005961020b565b604051808273ffffffffffffffffffffffffffffffffffffffff1673ffffffffffffffffffffffffffffffffffffffff16815260200191505060405180910390f35b6100a3610231565b604051808273ffffffffffffffffffffffffffffffffffffffff1673ffffffffffffffffffffffffffffffffffffffff16815260200191505060405180910390f35b61015c600480360360208110156100fb57600080fd5b810190808035906020019064010000000081111561011857600080fd5b82018360208201111561012a57600080fd5b8035906020019184602083028401116401000000008311171561014c57600080fd5b9091929391929390505050610256565b6040518080602001828103825283818151815260200191508051906020019060200280838360005b8381101561019f578082015181840152602081019050610184565b505050509050019250505060405180910390f35b6101f5600480360360208110156101c957600080fd5b81019080803573ffffffffffffffffffffffffffffffffffffffff1690602001909291905050506103af565b6040518082815260200191505060405180910390f35b600260009054906101000a900473ffffffffffffffffffffffffffffffffffffffff1681565b6000809054906101000a900473ffffffffffffffffffffffffffffffffffffffff1681565b6060808383905060405190808252806020026020018201604052801561028b5781602001602082028038833980820191505090505b50905060008090505b848490508110156103a4573073ffffffffffffffffffffffffffffffffffffffff1663b3596f078686848181106102c757fe5b9050602002013573ffffffffffffffffffffffffffffffffffffffff166040518263ffffffff1660e01b8152600401808273ffffffffffffffffffffffffffffffffffffffff1673ffffffffffffffffffffffffffffffffffffffff16815260200191505060206040518083038186803b15801561034457600080fd5b505afa158015610358573d6000803e3d6000fd5b505050506040513d602081101561036e57600080fd5b810190808051906020019092919050505082828151811061038b57fe5b6020026020010181815250508080600101915050610294565b508091505092915050565b600073c02aaa39b223fe8d0a0e5c4f27ead9083c756cc273ffffffffffffffffffffffffffffffffffffffff168273ffffffffffffffffffffffffffffffffffffffff16141561040957670de0b6b3a76400009050610659565b735d3a536e4d6dbd6114cc1ead35777bab948e364373ffffffffffffffffffffffffffffffffffffffff168273ffffffffffffffffffffffffffffffffffffffff16148061049657507339aa39c021dfbae8fac545936693ac917d5e756373ffffffffffffffffffffffffffffffffffffffff168273ffffffffffffffffffffffffffffffffffffffff16145b1561057c57600360009054906101000a900473ffffffffffffffffffffffffffffffffffffffff1673ffffffffffffffffffffffffffffffffffffffff1663b3596f07836040518263ffffffff1660e01b8152600401808273ffffffffffffffffffffffffffffffffffffffff1673ffffffffffffffffffffffffffffffffffffffff16815260200191505060206040518083038186803b15801561053a57600080fd5b505afa15801561054e573d6000803e3d6000fd5b505050506040513d602081101561056457600080fd5b81019080805190602001909291905050509050610659565b600160009054906101000a900473ffffffffffffffffffffffffffffffffffffffff1673ffffffffffffffffffffffffffffffffffffffff1663b3596f07836040518263ffffffff1660e01b8152600401808273ffffffffffffffffffffffffffffffffffffffff1673ffffffffffffffffffffffffffffffffffffffff16815260200191505060206040518083038186803b15801561061b57600080fd5b505afa15801561062f573d6000803e3d6000fd5b505050506040513d602081101561064557600080fd5b810190808051906020019092919050505090505b91905056fea265627a7a723158208d3f050ee6b50a73edc97c360ac953514f455656aea3c7fc1bee7d715a5de60a64736f6c63430005100032",
  "source": "pragma solidity >=0.4.22 <0.7.0;\n\nimport \"../contracts/CTokensOracle.sol\";\n\ncontract PriceOracleProxy {\n  address public aaveLPAddressesProviderAddress;\n  IPriceOracleGetter priceOracle;\n\n  address public cTokensOracleAddress;\n  CTokensOracle cTokensOracle;\n\n  constructor(\n    address _lpAddressesProviderAddress,\n    address _cTokensOracleAddress\n  ) public {\n    // Create the interface with the Aave Price Oracle.\n    // Used to price this Set in ETH.\n    aaveLPAddressesProviderAddress = _lpAddressesProviderAddress;\n    LendingPoolAddressesProvider provider = LendingPoolAddressesProvider(\n        _lpAddressesProviderAddress\n    );\n    priceOracle = IPriceOracleGetter(provider.getPriceOracle());\n\n    cTokensOracleAddress = _cTokensOracleAddress;\n    cTokensOracle = CTokensOracle(cTokensOracleAddress);\n  }\n\n  function getAssetPrice(address _asset) external view returns (uint256) {\n    if (_asset == address(0xC02aaA39b223FE8D0A0e5C4F27eAD9083C756Cc2)) {\n      return 1 ether;\n    } else if (\n      _asset == address(0x5d3a536E4D6DbD6114cc1Ead35777bAB948E3643) ||\n      _asset == address(0x39AA39c021dfbaE8faC545936693aC917d5E7563)\n    ) {\n      return cTokensOracle.getAssetPrice(_asset);\n    } else {\n      return priceOracle.getAssetPrice(_asset);\n    }\n  }\n\n  function getAssetsPrices(address[] calldata _assets)\n    external\n    view\n    returns (uint256[] memory) {\n      uint256[] memory prices = new uint256[](_assets.length);\n      for (uint256 i = 0; i < _assets.length; i++) {\n          prices[i] = this.getAssetPrice(_assets[i]);\n      }\n      return prices;\n    }\n}\n",
  "sourcePath": "/Users/thetravelingbunch/workspace/aave-integration/contracts/PriceOracleProxy.sol",
  "compiler": {
    "name": "solc",
    "version": "0.5.16+commit.9c3226ce.Emscripten.clang"
  },
  "schemaVersion": "3.1.0",
  "updatedAt": "2020-05-24T19:22:38.371Z",
  "networkType": "ethereum",
  "devdoc": {
    "methods": {}
  },
  "userdoc": {
    "methods": {}
  }
}